:060000000A128A11FC2F18
:100F5C008316031386018312031386010130831257
:100F6C00031386000430F200CF30F1000130F000A2
:100F7C00F00BBE2FF10BBE2FF20BBE2FC52F023084
:100F8C008312031386000430F200CF30F1000130DD
:100F9C00F000F00BCF2FF10BCF2FF20BCF2FD62F62
:100FAC0004308312031386000430F200CF30F100BA
:100FBC000130F000F00BE02FF10BE02FF20BE02FE3
:100FCC00E72F08308312031386000430F200CF3071
:100FDC00F1000130F000F00BF12FF10BF12FF20BBF
:100FEC00F12FF82FB42F0A128A11002883010A124C
:040FFC008A11AE2F79
:02400E00723FFF
:00000001FF
