:060000000A128A11FC2F18
:100F7200831203138C1EBE2FBF2FB92F1A0808002D
:100F820083160313071387178130990024309800C2
:100F9200903083120313980008008316031306107F
:100FA2008312031306100A128A11C1270A128A1128
:100FB2000A128A11B9270A128A11F3004130730604
:100FC200031DE42FE52FD92F8312031306140830D3
:100FD200F2009D30F1000530F000F00BEE2FF10B26
:100FE200EE2FF20BEE2FF52F831203130610D92FDB
:0E0FF2000A128A11002883010A128A11CE2FDA
:02400E003A3F37
:00000001FF
