:100000000A128A11F02F00308A000408840A82073D
:100010000034543449344D344534203400344434AD
:0A00200041345434453420340034D8
:1007C4008034C0340A128A110E240A128A11831644
:1007D4000313111408000A128A110E240A128A1132
:1007E4008316031311150800F0000A128A110E244F
:1007F4000A128A1170088312031393000800283028
:100804008312031394008316031391013130930070
:100814009401871507160800831603131419132C63
:10082400142C0E2C11081F39031D192C1A2C0E2CF4
:100834000800F8007D08F7007C08F6007808FF3E01
:10084400763E8400750800070A128A118A240A1267
:100854008A110800F200F101721C312C322C342C64
:100864007008F1070310F00D0310F20C7208031D59
:100874003C2C3D2C2E2C71080800F5000F3075051A
:10088400F3000A30F0007508F40004300310F40C8F
:10089400FF3E031D482C74080A128A112C240A12E4
:1008A4008A1173070800F1000A128A11E4230A125C
:1008B4008A114E300A128A11F6230A128A1171081B
:1008C40008380A128A11F6230A128A110A128A11A6
:1008D400ED230A128A1108007D2C7B0884000A1279
:1008E4008A1103200A128A110A128A11AC240A12EC
:1008F4008A110130FB077B0884000A128A11032045
:100904000A128A11003A031D882C892C6F2C0800C6
:10091400F4007408F0390A128A1155240A128A1153
:100924007408F20003300310F20DFF3E031D952CF2
:100934000310720DF0390A128A1155240A128A1111
:100944000D30F300FB30F200F20BA62CF30BA62CB7
:10095400AB2C0800FA007A08F03901380A128A111F
:1009640055240A128A117A08F80003300310F80D8E
:10097400FF3E031DB82C0310780DF03901380A121C
:100984008A1155240A128A110D30F900FB30F8003F
:10099400F80BCA2CF90BCA2CCF2C0800F0000A1251
:1009A4008A110E240A128A118316031391150A124E
:1009B4008A110E240A128A11831203131308F100F8
:1009C4000A128A110E240A128A1170080319EB2CD8
:1009D400EF2C831603139116F22C83160313911232
:1009E4001116710808008230F600DD30F500F50BB1
:1009F400F92CF60BF92CFE2C02300A128A118A24E7
:100A04000A128A1128300A128A118A240A128A11B7
:100A14000C300A128A118A240A128A1106300A1228
:100A24008A118A240A128A1101300A128A118A242C
:100A34000A128A110800F501F31F212D222D292DF8
:100A4400F209F309F20A0319F30A0130F500F11F60
:100A54002C2D2D2D322DF009F109F00A0319F10A7C
:100A6400700871040319372D382D652D0130F400F9
:100A7400442D01300310F00DF10DFF3E031D3C2DFC
:100A84000130F407F11F472D482D3B2D71087302E7
:100A9400031D4E2D70087202031C512D522D582D2A
:100AA4007008F2027108031CF303F302013003100F
:100AB400F10CF00CFF3E031D592D0130F402031D0F
:100AC400642D652D482D75080319692D6A2D6F2D28
:100AD400F209F309F20A0319F30A7308F100720820
:100AE400F0000800F501F11F782D792D802DF00913
:100AF400F109F00A0319F10A0130F500F31F832DFF
:100B0400842D8B2DF209F309F20A0319F30A01303B
:100B1400F506F601F701700871040319922D932D5F
:100B2400C82D0130F4009F2D01300310F00DF10D9C
:100B3400FF3E031D972D0130F407F11FA22DA32DB5
:100B4400962D01300310F60DF70DFF3E031DA42D65
:100B540071087302031DB02D70087202031CB32DBB
:100B6400B42DBB2D7008F2027108031CF303F302C9
:100B7400761401300310F10CF00CFF3E031DBC2D64
:100B84000130F402031DC72DC82DA32D75080319C8
:100B9400CC2DCD2DD22DF609F709F60A0319F70A43
:100BA4007708F1007608F00008000A128A11E4239D
:100BB4000A128A11D0300A128A11F6230A128A11F3
:100BC40000300A128A11F6230A128A110A128A11B3
:100BD400ED230A128A110A128A11E4230A128A11D5
:100BE400D1300A128A11F6230A128A117808840075
:100BF40001300A128A11D0240A128A110A128A11A7
:100C04003F240A128A11831380007708840001307C
:100C14000A128A11D0240A128A110A128A113F2454
:100C24000A128A11831380007608840001300A12A4
:100C34008A11D0240A128A110A128A113F240A1234
:100C44008A118313800001300A128A11D0240A12F7
:100C54008A117908840001300A128A11D0240A12F8
:100C64008A110A128A113F240A128A1183138000FE
:100C74007A08840001300A128A11D0240A128A11D7
:100C84000A128A113F240A128A11831380007B08F6
:100C9400840000300A128A11D0240A128A110A121E
:100CA4008A113F240A128A11831380000A128A11BE
:100CB400ED230A128A1108001830831603138700E3
:100CC4000A128A1101240A128A110A128A11F524BD
:100CD4000A128A112330F6002430F7002530F80078
:100CE4002630F9002730FA002830FB000A128A1156
:100CF400D7250A128A11F50101300A128A111B2420
:100D04000A128A110130FB000A128A116E240A1297
:100D14008A110A30F0000030F10083120313230813
:100D2400A000A1012008F2002108F3000A128A1190
:100D340074250A128A117008303E0A128A11AC24F2
:100D44000A128A110A30F0000030F10083120313F2
:100D54002308A000A1012008F2002108F3000A12D0
:100D64008A111D250A128A117008303E0A128A114E
:100D7400AC240A128A113A300A128A11AC240A12DB
:100D84008A110A30F0000030F100831203132408A2
:100D9400A000A1012008F2002108F3000A128A1120
:100DA40074250A128A117008303E0A128A11AC2482
:100DB4000A128A110A30F0000030F1008312031382
:100DC4002408A000A1012008F2002108F3000A125F
:100DD4008A111D250A128A117008303E0A128A11DE
:100DE400AC240A128A113A300A128A11AC240A126B
:100DF4008A110A30F0000030F10083120313250831
:100E0400A000A1012008F2002108F3000A128A11AF
:100E140074250A128A117008303E0A128A11AC2411
:100E24000A128A110A30F0000030F1008312031311
:100E34002508A000A1012008F2002108F3000A12ED
:100E44008A111D250A128A117008303E0A128A116D
:100E5400AC240A128A11F50102300A128A111B24E9
:100E64000A128A110730FB000A128A116E240A1230
:100E74008A110A30F0000030F100831203132608AF
:100E8400A000A1012008F2002108F3000A128A112F
:100E940074250A128A117008303E0A128A11AC2491
:100EA4000A128A110A30F0000030F1008312031391
:100EB4002608A000A1012008F2002108F3000A126C
:100EC4008A111D250A128A117008303E0A128A11ED
:100ED400AC240A128A112F300A128A11AC240A1285
:100EE4008A110A30F0000030F1008312031327083E
:100EF400A000A1012008F2002108F3000A128A11BF
:100F040074250A128A117008303E0A128A11AC2420
:100F14000A128A110A30F0000030F1008312031320
:100F24002708A000A1012008F2002108F3000A12FA
:100F34008A111D250A128A117008303E0A128A117C
:100F4400AC240A128A112F300A128A11AC240A1214
:100F54008A110A30F0000030F100831203132808CC
:100F6400A000A1012008F2002108F3000A128A114E
:100F740074250A128A117008303E0A128A11AC24B0
:100F84000A128A110A30F0000030F10083120313B0
:100F94002808A000A1012008F2002108F3000A1289
:100FA4008A111D250A128A117008303E0A128A110C
:100FB400AC240A128A110D3083120313A200AF303D
:100FC400A100B530A000A00BE52FA10BE52FA20BCB
:100FD400E52FEC2F6C2E0A128A1100280A128A11AE
:100FE400E2230A128A11FC000A128A11E3230A126C
:0C0FF4008A11FD0083010A128A115E2E92
:02400E00723FFF
:00000001FF
