:060000000A128A11FA2F1A
:100F30000630831603139F000610073081008312CA
:100F4000031381010B110B1DA62FA72FA32F0B112C
:100F50008312031381010130F107E32F06140430DB
:100F60007102031CB42FB52FA32FF1010130F0073C
:100F7000A32F061004307102031CBF2FC02FA32F14
:100F8000B52F061404307102031CC72FC82FA32FDE
:100F9000B52F06100C307102031CCF2FD02FA32FBA
:100FA000B52F061413307102031CD72FD82FA32F8F
:100FB000B52F061026307102031CDF2FE02FA32F60
:100FC000F101F001A32F7008003A0319AE2F013A86
:100FD0000319B92F033A0319C12F013A0319C92F75
:100FE000073A0319D12F013A0319D92FA32F0A1257
:100FF0008A110028F001F10183010A128A11982F49
:02400E003A3F37
:00000001FF
