:060000000A128A11FC2F18
:100F8000F000831203130C1EC62FC72FC12F700849
:100F900099000800831603130713871781309900FF
:100FA00024309800903083120313980008008316B1
:100FB000031305140A128A11CA270A128A1183120E
:100FC00003130518E42FE52FDF2F41300A128A1191
:100FD000C0270A128A110D30F300AF30F200B6308C
:100FE000F100F10BF12FF20BF12FF30BF12F0000B9
:100FF000DF2F0A128A11002883010A128A11D72FC3
:02400E003A3F37
:00000001FF
