:060000000A128A11FC2F18
:100F580083160313880106108312031388010610F1
:100F6800013083120313880006141A30F2005E3031
:100F7800F1006E30F000F00BBF2FF10BBF2FF20B1A
:100F8800BF2F00008312031306101A30F2005E30E0
:100F9800F1006E30F000F00BCF2FF10BCF2FF20BDA
:100FA800CF2F0000023083120313880006141A3072
:100FB800F2005E30F1006E30F000F00BE12FF10B23
:100FC800E12FF20BE12F00008312031306101A30F1
:100FD800F2005E30F1006E30F000F00BF12FF10BF3
:100FE800F12FF20BF12F0000B42F0A128A110028FA
:080FF80083010A128A11AC2FDB
:02400E003A3F37
:00000001FF
