:060000000A128A11FC2F18
:100F7600FF30831603138800061407108312031329
:100F86000710061CC72FC82FC42F0803031DCC2F1C
:100F9600CD2FDF2F07140830F2009D30F100053009
:100FA600F000F00BD42FF10BD42FF20BD42FDB2F44
:100FB600831203130710F42F02300806031DE42FD3
:100FC600E52FF42F07141530F2004B30F100BE3038
:100FD600F000F00BEC2FF10BEC2FF20BEC2F0000D6
:100FE600DB2F0618F72FF82FF42FC42F0A128A11B9
:0A0FF600002883010A128A11BB2FA4
:02400E003A3F37
:00000001FF
