:100000000A128A11FC2F00308A000408840A820731
:10001000003450344934433420344C344334443471
:100020002034543445345334543400344E346F3413
:10003000203449343234433420344D346F34643402
:0400400065340034EF
:100DCC00F7007703031DEB2EEC2EF42E7608803EF5
:100DDC000A128A1118270A128A11FB2E7608C03EB5
:100DEC000A128A1118270A128A1108000B2F76088A
:100DFC0084000A128A1103200A128A110A128A111B
:100E0C003A270A128A110130F607760884000A1272
:100E1C008A1103200A128A11003A031D162F172F6C
:100E2C00FD2E0800F5008312031306107508F3005D
:100E3C0004300310F30CFF3E031D1F2F73080A121E
:100E4C008A11AD270A128A1175080F390A128A11F4
:100E5C00AD270A128A110730F4007D30F300F30B32
:100E6C00352FF40B352F0800F500831203130614ED
:100E7C007508F30004300310F30CFF3E031D412FE3
:100E8C0073080A128A11AD270A128A1175080F39D4
:100E9C000A128A11AD270A128A110730F4007D302C
:100EAC00F300F30B572FF40B572F08000A128A117B
:100EBC0081270A128A11F60101300A128A11E626DC
:100ECC000A128A110130F6000A128A11FC260A1243
:100EDC008A11F60102300A128A11E6260A128A11C8
:100EEC000E30F6000A128A11FC260A128A117D2F86
:100EFC000A128A11002883160313860188014130D7
:100F0C00F700EE30F600F60B892FF70B892F000057
:100F1C0002300A128A1118270A128A1128300A1272
:100F2C008A1118270A128A110C300A128A111827F2
:100F3C000A128A1106300A128A1118270A128A110B
:100F4C0001300A128A1118270A128A110800F200BD
:100F5C007218B12FB52F831203130816B82F8312F2
:100F6C00031308127208F00001300310F00CFF3E5E
:100F7C00031DBB2F7018C32FC72F831203138816A2
:100F8C00CA2F8312031388127208F0000230031068
:100F9C00F00CFF3E031DCD2F7018D52FD92F8312C7
:100FAC0003130817DC2F8312031308137208F000C5
:100FBC0003300310F00CFF3E031DDF2F7018E72FDA
:100FCC00EB2F831203138817EE2F8312031388134E
:100FDC0086140430F1003D30F000F00BF32FF10BD0
:100FEC00F32FF82F831203138610080083010A12C3
:040FFC008A115C2FCB
:02400E00323F3F
:00000001FF
